:100000000C945B000C9483000C9483000C9483008C
:100010000C9483000C9483000C9483000C94830054
:100020000C9483000C9483000C9483000C94830044
:100030000C9483000C9483000C9483000C94830034
:100040000C941C020C9483000C948C020C94660299
:100050000C9483000C9483000C9483000C94830014
:100060000C9483000C9483000C9483000C94830004
:100070000C9483000C9483000C9483000C948300F4
:100080000C9483000C9483000C9483000C948300E4
:100090000C9483000C9483000C9483000C948300D4
:1000A0000C9483000C9483000C9483000C948300C4
:1000B0000C9483009D0311241FBECFEFD8E0DEBF58
:1000C000CDBF11E0A0E0B1E0E8EEF7E002C005909E
:1000D0000D92AE33B107D9F722E0AEE3B1E001C033
:1000E0001D92A230B207E1F710E0CBE5D0E004C0EA
:1000F0002197FE010E94EC03CA35D107C9F70E947F
:10010000BE020C94F2030C940000AF92BF92CF9207
:10011000DF92EF92FF920F931F93CF93DF936C01C7
:100120007B018B01040F151FEB015E01AE18BF08A8
:10013000C017D10759F06991D601ED91FC9101905A
:10014000F081E02DC6010995892B79F7C501DF9172
:10015000CF911F910F91FF90EF90DF90CF90BF90C4
:10016000AF900895FC01538D448D252F30E0842FEE
:1001700090E0821B930B541710F0CF9608950197CF
:100180000895FC01918D828D981761F0A28DAE0FBC
:10019000BF2FB11D5D968C91928D9F5F9F73928F43
:1001A00090E008958FEF9FEF0895FC01918D828D6F
:1001B000981731F0828DE80FF11D858D90E008953C
:1001C0008FEF9FEF0895FC01918D228D892F90E094
:1001D000805C9F4F821B91098F739927089585E654
:1001E00091E00E94E30021E0892B09F420E0822FB6
:1001F0000895FC01A48DA80FB92FB11DA35ABF4FBC
:100200002C91848D90E001968F739927848FA68915
:10021000B7892C93A089B1898C91837080648C9369
:10022000938D848D981306C00288F389E02D808118
:100230008F7D80830895EF92FF920F931F93CF934A
:10024000DF93EC0181E0888F9B8D8C8D98131AC011
:10025000E889F989808185FF15C09FB7F894EE89F8
:10026000FF896083E889F989808183708064808355
:100270009FBF81E090E0DF91CF911F910F91FF90A0
:10028000EF900895F62E0B8D10E00F5F1F4F0F7348
:100290001127E02E8C8D8E110CC00FB607FCFACF03
:1002A000E889F989808185FFF5CFCE010E94F900A8
:1002B000F1CFEB8DEC0FFD2FF11DE35AFF4FF082D4
:1002C0009FB7F8940B8FEA89FB8980818062CFCF3A
:1002D000CF93DF93EC01888D8823B9F0AA89BB897D
:1002E000E889F9898C9185FD03C0808186FD0DC068
:1002F0000FB607FCF7CF8C9185FFF2CF808185FF89
:10030000EDCFCE010E94F900E9CFDF91CF910895A2
:1003100080E090E0892B29F00E94EF0081110E947B
:10032000000080E090E0892B49F080E090E0892B8C
:1003300029F00E94000081110C9400000895FC0136
:1003400001900020E9F73197AF01481B590BBC0120
:1003500085E691E00C9485008F929F92AF92BF92B8
:100360000F931F93CF93DF93CDB7DEB7A1970FB64F
:10037000F894DEBF0FBECDBF19A2423008F44AE0A8
:100380008E010F5D1F4F842E912CB12CA12CA50145
:1003900094010E94CA03E62FB901CA01EA30F4F4BD
:1003A000E05DD801EE938D01232B242B252B79F7CB
:1003B00090E080E0109719F0CD010E949F01A19676
:1003C0000FB6F894DEBF0FBECDBFDF91CF911F9166
:1003D0000F91BF90AF909F908F900895E95CE1CF0F
:1003E000CF92DF92EF92FF92CF93DF9397FF1BC0E4
:1003F0006B017C016DE285E691E00E941B01EC013E
:1004000066277727CB016C197D098E099F094AE081
:100410000E94AC018C0F9D1FDF91CF91FF90EF9058
:10042000DF90CF9008954AE0DF91CF91FF90EF9059
:10043000DF90CF900C94AC011F920F920FB60F92E9
:1004400011242F933F938F939F93AF93BF938091EA
:10045000610190916201A0916301B09164013091BA
:10046000600126E0230F2D3768F129E8230F03965A
:10047000A11DB11D209360018093610190936201E1
:10048000A0936301B093640180915C0190915D0140
:10049000A0915E01B0915F010196A11DB11D8093F5
:1004A0005C0190935D01A0935E01B0935F01BF91E9
:1004B000AF919F918F913F912F910F900FBE0F9011
:1004C0001F9018950296A11DB11DD4CF1F920F92B7
:1004D0000FB60F9211242F933F934F935F936F9317
:1004E0007F938F939F93AF93BF93EF93FF9385E693
:1004F00091E00E94F900FF91EF91BF91AF919F9120
:100500008F917F916F915F914F913F912F910F90BC
:100510000FBE0F901F9018951F920F920FB60F925B
:1005200011242F938F939F93EF93FF93E091750185
:10053000F09176018081E0917B01F0917C0182FD58
:100540001BC0908180917E018F5F8F7320917F010E
:10055000821741F0E0917E01F0E0EB59FE4F958F5C
:1005600080937E01FF91EF919F918F912F910F903A
:100570000FBE0F901F9018958081F4CF789484B5AA
:10058000836084BD85B5836085BD80916E00816088
:1005900080936E0092E09093810080918100816051
:1005A00080938100809180008160809380008091A1
:1005B000B10084608093B1008091B000816080932D
:1005C000B0008091910083608093910080919000B1
:1005D0008160809390008091A10083608093A1004E
:1005E0008091A00081608093A00086E880937A00CB
:1005F0001092C100E0917501F09176019083E09135
:100600007101F09172011082E0917301F091740117
:1006100080E1808310927D01E0917901F0917A016F
:1006200086E08083E0917701F0917801808188698C
:100630008083E0917701F091780180818F7D8083C4
:100640000EE311E0F80130E020E050E040E090E0FF
:1006500080E0BC0161707727D901A42BB52B6A2BF0
:100660007B2B619371930196405F5F4F3E5F8F30AC
:10067000910579F782E191E00E949F0185E191E087
:100680000E949F0182E191E00E949F01C12CD12C28
:100690007601F801C081D18181E291E00E949F0141
:1006A000C701B6010E94F00188E291E00E949F011B
:1006B000F801619171918F0190E080E040E10E942A
:1006C000AC018FE291E00E949F01BE01617077272B
:1006D000072E000C880B990B0E94F00184E391E037
:1006E0000E949F01BE0184E0769567958A95E1F7A7
:1006F0006F707727072E000C880B990B0E94F00172
:1007000089E391E00E949F01CD2FDD27BE0190E09B
:1007100080E00E94F00182E191E00E949F01FFEFE2
:10072000CF1ADF0AEF0AFF0A8FE0C816D104E104EE
:10073000F10409F0AECF0000FECFE5E6F1E0138250
:10074000128288EE93E0A0E0B0E084839583A683D4
:10075000B78384E091E09183808385EC90E0958776
:10076000848784EC90E09787868780EC90E0918B7B
:10077000808B81EC90E0938B828B82EC90E0958B68
:10078000848B86EC90E0978B868B118E128E138E65
:10079000148E0895A1E21A2EAA1BBB1BFD010DC0E9
:1007A000AA1FBB1FEE1FFF1FA217B307E407F50721
:1007B00020F0A21BB30BE40BF50B661F771F881FFD
:1007C000991F1A9469F760957095809590959B0193
:1007D000AC01BD01CF010895EE0FFF1F0590F4910C
:0807E000E02D0994F894FFCF0D
:1007E800000000001B018500B2006801E300C100A1
:1007F800D5000D0A0053544152542076302E30351E
:10080800004653544C425B005D203D203078002068
:0E08180020763D0020206C3D002020663D0033
:00000001FF
