:020000040000FA
:100000000C9435000C945D000C945D000C945D0024
:100010000C945D000C945D000C945D000C945D00EC
:100020000C945D000C945D000C945D000C945D00DC
:100030000C945D000C945D000C945D000C945D00CC
:100040000C94E9010C945D000C9459020C94330259
:100050000C945D000C945D000C945D000C945D00AC
:100060000C945D000C945D007F0311241FBECFEF44
:10007000D8E0DEBFCDBF11E0A0E0B1E0ECEAF7E0F0
:1000800002C005900D92AE33B107D9F722E0AEE37E
:10009000B1E001C01D92A230B207E1F710E0C5E364
:1000A000D0E004C02197FE010E94CE03C433D107E3
:1000B000C9F70E948B020C94D4030C940000AF92F9
:1000C000BF92CF92DF92EF92FF920F931F93CF9345
:1000D000DF936C017B018B01040F151FEB015E01A7
:1000E000AE18BF08C017D10759F06991D601ED913C
:1000F000FC910190F081E02DC6010995892B79F7DB
:10010000C501DF91CF911F910F91FF90EF90DF908C
:10011000CF90BF90AF900895FC01538D448D252F53
:1001200030E0842F90E0821B930B541710F0CF9691
:10013000089501970895FC01918D828D981761F0C3
:10014000A28DAE0FBF2FB11D5D968C91928D9F5FDA
:100150009F73928F90E008958FEF9FEF0895FC01B9
:10016000918D828D981731F0828DE80FF11D858D6C
:1001700090E008958FEF9FEF0895FC01918D228DFF
:10018000892F90E0805C9F4F821B91098F73992784
:10019000089585E691E00E94BD0021E0892B09F4D5
:1001A00020E0822F089580E090E0892B29F00E94C2
:1001B000C90081110C9400000895FC01A48DA80FC2
:1001C000B92FB11DA35ABF4F2C91848D90E0019699
:1001D0008F739927848FA689B7892C93A089B189B9
:1001E0008C91837080648C93938D848D981306C05A
:1001F0000288F389E02D80818F7D80830895EF92BE
:10020000FF920F931F93CF93DF93EC0181E0888FD0
:100210009B8D8C8D98131AC0E889F989808185FFA0
:1002200015C09FB7F894EE89FF896083E889F98942
:1002300080818370806480839FBF81E090E0DF9144
:10024000CF911F910F91FF90EF900895F62E0B8D97
:1002500010E00F5F1F4F0F731127E02E8C8D8E1152
:100260000CC00FB607FCFACFE889F989808185FFB9
:10027000F5CFCE010E94DD00F1CFEB8DEC0FFD2F0D
:10028000F11DE35AFF4FF0829FB7F8940B8FEA8974
:10029000FB8980818062CFCFCF93DF93EC01888D83
:1002A0008823B9F0AA89BB89E889F9898C9185FDF1
:1002B00003C0808186FD0DC00FB607FCF7CF8C917F
:1002C00085FFF2CF808185FFEDCFCE010E94DD005A
:1002D000E9CFDF91CF910895FC0101900020E9F76B
:1002E0003197AF01481B590BBC0185E691E00C9496
:1002F0005F008F929F92AF92BF920F931F93CF9305
:10030000DF93CDB7DEB7A1970FB6F894DEBF0FBE6F
:10031000CDBF19A2423008F44AE08E010F5D1F4F95
:10032000842E912CB12CA12CA50194010E94AC0328
:10033000E62FB901CA01EA30F4F4E05DD801EE938A
:100340008D01232B242B252B79F790E080E010974B
:1003500019F0CD010E946C01A1960FB6F894DEBF92
:100360000FBECDBFDF91CF911F910F91BF90AF9086
:100370009F908F900895E95CE1CFCF92DF92EF924A
:10038000FF92CF93DF9397FF1BC06B017C016DE25F
:1003900085E691E00E94FF00EC0166277727CB01FC
:1003A0006C197D098E099F094AE00E9479018C0F22
:1003B0009D1FDF91CF91FF90EF90DF90CF90089538
:1003C0004AE0DF91CF91FF90EF90DF90CF900C94B7
:1003D00079011F920F920FB60F9211242F933F9322
:1003E0008F939F93AF93BF9380916101909162012E
:1003F000A0916301B09164013091600123E0230F6B
:100400002D3758F50196A11DB11D209360018093F1
:10041000610190936201A0936301B09364018091A4
:100420005C0190915D01A0915E01B0915F01019628
:10043000A11DB11D80935C0190935D01A0935E01AD
:10044000B0935F01BF91AF919F918F913F912F9199
:100450000F900FBE0F901F90189526E8230F02965D
:10046000A11DB11DD2CF1F920F920FB60F92112472
:100470002F933F934F935F936F937F938F939F93AC
:10048000AF93BF93EF93FF9385E691E00E94DD0069
:10049000FF91EF91BF91AF919F918F917F916F915C
:1004A0005F914F913F912F910F900FBE0F901F9032
:1004B00018951F920F920FB60F9211242F938F93BE
:1004C0009F93EF93FF93E0917501F0917601808106
:1004D000E0917B01F0917C0182FD1BC090818091B5
:1004E0007E018F5F8F7320917F01821741F0E09131
:1004F0007E01F0E0EB59FE4F958F80937E01FF91D6
:10050000EF919F918F912F910F900FBE0F901F90A1
:1005100018958081F4CF789484B5826084BD84B5C9
:10052000816084BD85B5826085BD85B5816085BDEE
:1005300080916E00816080936E00109281008091A6
:10054000810082608093810080918100816080932E
:100550008100809180008160809380008091B10053
:1005600084608093B1008091B00081608093B0007E
:1005700080917A00846080937A0080917A00826012
:1005800080937A0080917A00816080937A008091D4
:100590007A00806880937A001092C100E091750122
:1005A000F091760182E08083E0917101F091720117
:1005B0001082E0917301F091740180E180831092C8
:1005C0007D01E0917901F0917A0186E08083E091EC
:1005D0007701F0917801808180618083E0917701DB
:1005E000F0917801808188608083E0917701F091BB
:1005F0007801808180688083E0917701F0917801B3
:1006000080818F7D80830EE311E0F80130E020E0EF
:1006100050E040E090E080E0BC0161707727D901B4
:10062000A42BB52B6A2B7B2B619371930196405FB2
:100630005F4F3E5F8F30910579F782E191E00E9434
:100640006C0185E191E00E946C0182E191E00E94E1
:100650006C01C12CD12C7601F801C081D18181E2DD
:1006600091E00E946C01C701B6010E94BD0188E2C1
:1006700091E00E946C01F801619171918F0190E00D
:1006800080E040E10E9479018FE291E00E946C01DC
:10069000BE0161707727072E000C880B990B0E9412
:1006A000BD0184E391E00E946C01BE0184E0769577
:1006B00067958A95E1F76F707727072E000C880BF6
:1006C000990B0E94BD0189E391E00E946C01CD2F3E
:1006D000DD27BE0190E080E00E94BD0182E191E053
:1006E0000E946C01FFEFCF1ADF0AEF0AFF0A8FE0CA
:1006F000C816D104E104F10409F0AECFFFCFE5E65E
:10070000F1E01382128288EE93E0A0E0B0E08483EF
:100710009583A683B78384E091E09183808385EC01
:1007200090E09587848784EC90E09787868780ECBB
:1007300090E0918B808B81EC90E0938B828B82ECAC
:1007400090E0958B848B86EC90E0978B868B118E56
:10075000128E138E148E0895A1E21A2EAA1BBB1BB3
:10076000FD010DC0AA1FBB1FEE1FFF1FA217B3077D
:10077000E407F50720F0A21BB30BE40BF50B661F93
:10078000771F881F991F1A9469F760957095809557
:1007900090959B01AC01BD01CF010895EE0FFF1FA5
:1007A0000590F491E02D0994F894FFCF000000002B
:1007B000FF005F008C004C01BD009B00AF000D0AE4
:1007C0000053544152542076302E30310046535459
:1007D0004C425B005D203D203078002020763D00BB
:0A07E00020206C3D002020663D0043
:107E0000112484B714BE81FFF0D085E080938100F7
:107E100082E08093C00088E18093C10086E0809377
:107E2000C20080E18093C4008EE0C9D0259A86E02C
:107E300020E33CEF91E0309385002093840096BBD3
:107E4000B09BFECF1D9AA8958150A9F7CC24DD24C4
:107E500088248394B5E0AB2EA1E19A2EF3E0BF2EE7
:107E6000A2D0813461F49FD0082FAFD0023811F036
:107E7000013811F484E001C083E08DD089C08234E0
:107E800011F484E103C0853419F485E0A6D080C0E4
:107E9000853579F488D0E82EFF2485D0082F10E0AE
:107EA000102F00270E291F29000F111F8ED06801E7
:107EB0006FC0863521F484E090D080E0DECF843638
:107EC00009F040C070D06FD0082F6DD080E0C81688
:107ED00080E7D80618F4F601B7BEE895C0E0D1E017
:107EE00062D089930C17E1F7F0E0CF16F0E7DF06D8
:107EF00018F0F601B7BEE89568D007B600FCFDCFD4
:107F0000A601A0E0B1E02C9130E011968C91119780
:107F100090E0982F8827822B932B1296FA010C0160
:107F200087BEE89511244E5F5F4FF1E0A038BF0790
:107F300051F7F601A7BEE89507B600FCFDCF97BE46
:107F4000E89526C08437B1F42ED02DD0F82E2BD052
:107F50003CD0F601EF2C8F010F5F1F4F84911BD097
:107F6000EA94F801C1F70894C11CD11CFA94CF0C13
:107F7000D11C0EC0853739F428D08EE10CD085E9AC
:107F80000AD08FE07ACF813511F488E018D01DD067
:107F900080E101D065CF982F8091C00085FFFCCF94
:107FA0009093C60008958091C00087FFFCCF809118
:107FB000C00084FD01C0A8958091C6000895E0E648
:107FC000F0E098E1908380830895EDDF803219F02E
:107FD00088E0F5DFFFCF84E1DECF1F93182FE3DFCA
:107FE0001150E9F7F2DF1F91089580E0E8DFEE27F6
:047FF000FF270994CA
:027FFE00040479
:00000001FF
